:020000040800F2
:10000000500600207D0200088102000883020008DB
:10001000850200088702000889020008000000002D
:100020000000000000000000000000008B0200083B
:100030008D020008000000008F02000891020008F5
:10004000930200089302000893020008930200083C
:10005000930200089302000893020008930200082C
:10006000930200089302000893020008930200081C
:10007000930200089302000893020008930200080C
:1000800093020008930200089302000893020008FC
:1000900093020008930200089302000893020008EC
:1000A00093020008930200089302000893020008DC
:1000B000794100087D0A00081B38000893020008F7
:1000C00093020008930200089302000893020008BC
:1000D000930200089308000823390008033600083B
:1000E00093020008930200089302000800F002F84F
:1000F00000F0B2F80AA090E8000C82448344AAF110
:100100000107DA4501D100F0A7F8AFF2090EBAE80D
:100110000F0013F0010F18BFFB1A43F0010318473B
:10012000E0770000007800000A444FF0000C10F85F
:10013000013B13F0070408BF10F8014B1D1108BF65
:1001400010F8015B641E05D010F8016B641E01F805
:10015000016BF9D113F0080F1EBF10F8014BAD1C55
:100160000C1B09D16D1E58BF01F801CBFAD505E073
:1001700014F8016B01F8016B6D1EF9D59142D6D3CD
:10018000704700000023002400250026103A28BFF5
:1001900078C1FBD8520728BF30C148BF0B607047F9
:1001A0006E2904F09287702904F02C86662906F0E7
:1001B000AE85652906F0AB85672906F0A88561291B
:1001C000AFF3008003681B0A28BF41F08001692952
:1001D00004F09A85642904F09785752904F09485C4
:1001E0006F2905F08D80782904F0F885E92905F05C
:1001F0002580E42905F02280F52905F01F80EF29EC
:1002000005F08A80F82904F0F7850368DB0928BF28
:1002100041F08001632904F09487732904F09987E1
:10022000E32905F0E182F32905F0E682002070471A
:100230001FB506F0E0FC05F035FB040000200021AE
:1002400006F09AF8401C60600020002106F07EF85D
:10025000E0601FBD10B510BD05F0F6FA1146FFF7BE
:10026000E7FF00F025F805F0D3FB03B4FFF7F2FF3A
:1002700003BC00F001FB000030BF0000084800474D
:10028000FEE7FEE7FEE7FEE7FEE7FEE7FEE7FEE746
:10029000FEE7FEE703480449024A044B70470000AA
:1002A000ED000008500400205006002050040020FB
:1002B0001CB566A000680190092000F074FA48207F
:1002C00000F0E0F84FF41651482000F01FFB00F05A
:1002D0009DFB00F099FF4FF47A7000F0ECF84FF4BA
:1002E0006141242003F050FB594803F03AFB00BF62
:1002F000584800780028FBD0574803F032FB4AE00A
:100300004FF000005549086052480078012806D196
:1003100003F0A8FB4FF47A7000F0CDF83BE04D48B5
:100320000078022806D103F0A4FB4FF47A7000F0A5
:10033000C2F830E047480078032806D103F0A0FB5C
:100340004FF47A7000F0B7F825E0424800780428AE
:1003500006D103F09CFB4FF47A7000F0ACF81AE081
:100360003C480078052806D103F098FB4FF47A70DA
:1003700000F0A1F80FE037480078062806D103F016
:1003800094FB4FF47A7000F096F804E0314800785E
:10039000072800D100E0B3E700BF4FF6FF7000F080
:1003A00011FF2FA29621322002F0EBFF2EA2962100
:1003B000782002F0E6FF2F48407A8DF804002D489F
:1003C000807A8DF805009DF805009DF8041040EA3C
:1003D0000128404606F034FB824606F0C1F9044687
:1003E0000022254B06F010F8064605F0DBFF81469B
:1003F0004FF00A0098FBF0F44FF010004FF00203AA
:1004000022464FF0960100904FF0640002F03BFF4F
:100410000A2098FBF0F100FB1184102002232246F1
:10042000962100907D2002F02EFF4FF416512420DB
:1004300003F05EF9484606F093F9044622460B465F
:100440000EA003F0CDF900BFFEE70000017C000024
:100450001A0000200000002032000020A0012142EC
:10046000626C6F6F643A00002E20206D6D6F6C2FF0
:100470004C000000D803002000002440252E3266E6
:10048000000000004FF0E021096921F004014FF065
:10049000E02211614FEAE07200EB52724FEAE20291
:1004A000244B1A70194609784FF47A7201FB02F155
:1004B000214A1180704701461F4A128801FB02F24F
:1004C0004FF0E0235A614FF000029A614FF00102B1
:1004D0001A6100BF4FF0E022106910F0010F02D046
:1004E00010F4803FF6D04FF000024FF0E0231A6185
:1004F0009A61704701460F4A127801FB02F24FF0F1
:10050000E0235A614FF000029A614FF001021A6134
:1005100000BF4FF0E022106910F0010F02D010F47C
:10052000803FF6D04FF000024FF0E0231A619A614D
:10053000704700000200002004000020BB4A01EACE
:10054000020242EA0002BA4B1A60704701464FF0BD
:10055000070323EA01024FEA0222B64B18684FF65E
:10056000FF0300EA0300B44B40EA030040EA020044
:10057000B04B186070472DE9F04780468946144615
:100580001D4620464FEAE47104EB91714FEAA10A3F
:100590004FEAE47104EB91714FEAA101A4EB8101F0
:1005A000CFB24FF0040000EBC700C7B22846FFF7F8
:1005B000CDFFC5F1040008FA00F64FF00F0040FA35
:1005C00005F000EA090040EA060606F00F06202CB6
:1005D0000CDA9A4800684FF0010101FA04F140EA90
:1005E00001004FF0E021C1F800010DE094480068DF
:1005F000A4F120014FF0010202FA01F240EA0200E8
:100600004FF0E021C1F804018E4850F82A0006FAA4
:1006100007F140EA01008B4941F82A00BDE8F08764
:1006200070B504460B464FEAE17601EB96764FEA49
:10063000A6004FEAE17601EB96764FEAA606A1EB1B
:1006400086064FEA86664FEA16657F4B9B6943F044
:1006500001037D4EB3614FEAB63353F820304FF0BB
:100660000F0606FA05F623EA0603784E46F8203010
:10067000334653F8203004FA05F643EA0603734E76
:1006800046F82030724B1E684FF0010303FA01F365
:1006900046EA03066E4B1E6012F0010F09D06D4B47
:1006A0001B684FF0010606FA01F643EA0603694E9D
:1006B000336012F0020F09D0674B1B684FF0010640
:1006C00006FA01F643EA0603634E336070BD00B5D7
:1006D0004FF000005C490861C8604FF014004861A9
:1006E0004FF000008861C8610846006840F00100D2
:1006F000086008464068594900EA010052494860CC
:1007000008460068564900EA01004F49086008465B
:10071000006820F4802008600846406820F4FE004D
:1007200048604FF00000886001464FF00060FFF71E
:1007300005FF00BD10B54B48006840F00400494972
:1007400008604148C06940F080503F49C861464850
:10075000406840F48070444948600846006840F0B2
:10076000040008600846006840F002000860FFF7D7
:1007700083FD10BD3D482F490860704701464FEA90
:100780004161314A926942F001022F4B9A61384A25
:10079000526822F0E062364B5A601A46526842EACA
:1007A00001025A60704730B504464FF00005FFF76C
:1007B0008EFF2548006840F480302349086000BF60
:1007C00021480068400CFBD04FF480601E4948600F
:1007D000A4F10200C4B20846406840EA8440486080
:1007E0000846406840F4803048602248006840F085
:1007F0003200204908601448006840F080701249B7
:10080000086000BF10480068400EFBD00E484068EA
:1008100040F002000C49486005E00B484068C0F316
:10082000870505F00305022DF7D130BD80FFFF1FBE
:1008300008ED00E00CED00E00000FA0500E100E04A
:1008400004E100E000E400E0001002400800014084
:10085000000401400C040140080401400000FFF8BE
:10086000FFFFF6FE10ED00E0007000400400FA0506
:100870000000014000200240014600BF704700BF59
:10088000594A128812F0400FFAD0C2B2574B1A8060
:1008900070475549098811F0200F36D0534909880F
:1008A000C8B25349098811F4004F2ED15049098824
:1008B00011F4804F0DD00A2804D04FF000014C4AAB
:1008C000118022E04A49098841F40041484A1180D8
:1008D0001BE00D2806D14649098841F48041444A6D
:1008E000118012E042490988C1F30D01414A505478
:1008F0003F49098801F101013D4A118011460988EB
:10090000C72902DD4FF00001118070472DE9F05F2B
:1009100005460E464FEA061006F092F88146364923
:1009200005FB01F006F08CF88246494605F0A6FF6B
:100930000746384606F064F884B2204606F080F890
:100940008346394606F063F982464FF0834106F04C
:100950008BF8814606F054F880464FEA041404EB05
:10096000080084B22548806940F00400234988616A
:100970000846806940F4804088612148006820F47E
:100980007F601F4908600846006840F40B600860FB
:100990001A48C06840F480401849C8600846C068DA
:1009A00020F48040C8601748048000F104000088EB
:1009B00042F20C0140EA0100134908800846008811
:1009C00040F4807008800846008840F020000880CD
:1009D0004FF002034FF025024FF003010846FFF7E6
:1009E000CAFDBDE8F09F0000003801400438014016
:1009F000080000208001002040420F00001002404B
:100A000004080140083801400C380140164880694C
:100A100040F00400144988610846806940F02000D5
:100A200088611248006820F00F00104908600846ED
:100A3000006840F0030008600D48006840F48070D2
:100A40000B4908600B48006820F470600949086091
:100A50000846006840F4407008600748006840F0AD
:100A60000400054908607047001002400408014076
:100A70000C080140001401400C1401403B48008860
:100A80003A48008820F0010038490880704770B566
:100A900005460C463648C06940F002003449C8613A
:100AA00034480580A0F1040004803348008840F0F9
:100AB0000100314908800846008840F04000088065
:100AC0002E48008840F001002C4908804FF00203B6
:100AD0004FF01D024FF003014FF00100FFF74BFDF7
:100AE00070BD234AD26942F00202214BDA61244AE6
:100AF000126822F00F02224B1A601A46126842F066
:100B000004021A60A3F10402126822F07042A3F1F9
:100B100004031A601A46126842F030421A60194AF9
:100B2000126842F08002174B1A60124A1080A2F13C
:100B300004021180144A128842F4E042124B1A80D7
:100B40001A46128842F400621A80104A128842F053
:100B500010020E4B1A804FF40042084B1A801A46BE
:100B6000128842F001021A80704700001004004011
:100B7000001002402C0400400C040040000400401F
:100B8000040801400C080140180400402004004003
:100B90004FF48071FD4A51614FF400715161FC497D
:100BA00008604FF08001516111614FF400711161D3
:100BB000704710B54FF08830F649086001F1040124
:100BC00008604FF00000F24908604FF48070EF4970
:100BD00008614FF4007048614FF040004861EE48F2
:100BE0000088A0F50941893902D10220FFF782FC73
:100BF0004FF04000E5490861E848006884B24FF4CE
:100C0000007008614FF03330E249086001F10401DF
:100C100008604FF6FF70DE490860204610BD10B531
:100C200004460B462046FFF7B3FF4FF48070D749C8
:100C300008614FF400704861D54803604FF08000B0
:100C4000486108614FF40070086110BD10B504469A
:100C50002046FFF79DFFFFF7ACFF10BD00B5CE4863
:100C60000088A0F51341413903D12C20FFF790FFF4
:100C700002E02220FFF78CFF00BD4FF48071C34AD1
:100C800011614FF400715161C14908604FF080015A
:100C9000516111614FF400711161704730B5014627
:100CA00001F01F04C1F345134FEAD1224FEAC425D6
:100CB00005EB43151544A8B230BD2DE9F0410546BA
:100CC0000E46F02D02DAB6F5A07F02DB0020BDE86B
:100CD000F0813146284605F0A5FAAF480088A0F516
:100CE0001341413903D12E20FFF752FF02E02220A9
:100CF000FFF74EFF4FF08830A649086001F104016C
:100D000008604FF6FF70A24908604FF480709F4959
:100D100008614FF4007048614FF0400048614FF0A7
:100D20000100FFF7E7FB4FF0400098490861486178
:100D30004FF00100FFF7DEFB4FF0400093490861E0
:100D40009648006884B294480088A0F51341413960
:100D50000BD14FF040008D49486108618F48006811
:100D60001FFA80F8E7B24FEA07274FF4007087496F
:100D700008614FF033308749086001F104010860D1
:100D80004FF6FF708249086083480088A0F5134140
:100D9000253917D080480088A0F58A41353911D00F
:100DA0007D480088A0F58A4131390BD07A48008807
:100DB000A0F50941893905D077480088A0F535416B
:100DC000053901D1204682E773480088A0F5134118
:100DD000413907D1E012C002B91240EA411040EA9D
:100DE000E82074E72046FFF759FF70E700B56A482E
:100DF0000088A0F51341413903D12920FFF7C8FE2F
:100E000004E040F273110720FFF709FF00BD00B5B1
:100E100061480088A0F51341413903D12820FFF72C
:100E2000B7FE03E000210720FFF7F9FE00BD70B513
:100E300005464FF00004264657480088A0F51341A8
:100E400041397DD1082D1CD2DFE805F00406090CDC
:100E50000F12151800BF14E044F0800411E044F0B4
:100E600040040EE044F0C0040BE044F0200408E02D
:100E700044F0600405E044F0A00402E044F0E00423
:100E800000BF00BF4FF0360644F00804214630464C
:100E9000FFF7C5FE14F0200F77D02A20FFF778FE69
:100EA0004FF48070394908614FF4007048614FF089
:100EB0000000374908604FF08000344948610861FC
:100EC0004FF4007008614FF4807008614FF40070B7
:100ED00048614FF000002E4908604FF080002B4918
:100EE000486108614FF4007008614FF48070086138
:100EF0004FF4007048614FF00100254908604FF041
:100F000080002249486108614FF4007008614FF485
:100F1000807008614FF4007048614FF03F001C4939
:100F200008604FF080001949486108614FF4007073
:100F300008614FF02B00FFF72BFE4FF4807000E0AC
:100F4000EDE0124908614FF4007048614FF0000075
:100F50000F4908604FF080000C49486108614FF468
:100F6000007008614FF4807008614FF400704861B0
:100F70004FF00000064908604FF0800003494861C7
:100F800008614FF4007008610AE02EE00010014093
:100F90000C0C0140000C014014000020080C014022
:100FA0004FF4807008614FF4007048614FF000000A
:100FB000FE4908604FF08000FD49486108614FF428
:100FC000007008614FF4807008614FF40070486150
:100FD0004FF0EF00F54908604FF08000F449486198
:100FE00008614FF400700861CEE02A20FFF7D0FDC1
:100FF0004FF48070EE4908614FF4007048614FF083
:101000000000EA4908604FF08000E9494861086142
:101010004FF4007008614FF4807008614FF4007065
:1010200048614FF00000E14908604FF08000E0495E
:10103000486108614FF4007008614FF480700861E6
:101040004FF4007048614FF00000D84908604FF03D
:101050008000D749486108614FF4007008614FF47F
:10106000807008614FF4007048614FF0EF00CF4985
:1010700008604FF08000CE49486108614FF400706D
:1010800008614FF02B00FFF783FD4FF48070C849D3
:1010900008614FF4007048614FF00000C3490860D8
:1010A0004FF08000C249486108614FF40070086148
:1010B0004FF4807008614FF4007048614FF00000F9
:1010C000BA4908604FF08000B949486108614FF49F
:1010D000007008614FF4807008614FF4007048613F
:1010E0004FF00100B14908604FF08000B0494861FD
:1010F00008614FF4007008614FF4807008614FF48C
:10110000007048614FF03F00A84908604FF0800030
:10111000A749486108614FF40070086134E0082D68
:101120001CD2DFE805F004070A0D0F12151844F071
:10113000300413E044F0100410E044F020040DE00B
:1011400000BF0BE044F0380408E044F0280405E058
:1011500044F0180402E044F0080400BF00BF9548C2
:101160000088A0F50941893906D14FF0110646F2F1
:10117000400044EA000403E04FF0030644F48054C6
:1011800021463046FFF74BFD70BD70B504460D4655
:101190002946204605F046F8FFF760FD4FF48070C1
:1011A000834908614FF400704861834800887F4993
:1011B00008604FF080007E49486108614FF400707C
:1011C000086170BD70B504464FF000052946084619
:1011D00005F028F8FFF742FD00BF11E04FF48070E2
:1011E000734908614FF400704861704804604FF023
:1011F0008000486108614FF40070086105F1010545
:10120000B5F5963FEAD370BD10B56C48806940F0E3
:1012100008006A4988610846806940F010008861CA
:101220000846806940F0010088614FF00100FFF737
:10123000A5FA5F4840686FF30B005D4948600846B7
:10124000406840F2333140EA01005949486008469D
:10125000006820F07F4008600846006840F04C506D
:1012600008600846C06840F4F860C8604FF033304A
:1012700053490860A1F1040108604FF6FF704B4923
:1012800008604FF03200FFF716F901210020FFF748
:10129000C6FC3220FFF70FF90020FFF7D7FC4549C5
:1012A00008800846008828B108460088A0F57F41DC
:1012B000FF391BD1D320FFF76BFCFFF77AFCFFF758
:1012C00078FCFFF776FC00F0BF003A49088008463A
:1012D00000884FEA00604FEA10400880FFF769FC81
:1012E0003449098840EA01003249088031480188C0
:1012F00034A003F0ABFC2F480088A0F5134141391E
:1013000068D1CF20FFF744FC4FF480702849086172
:101310004FF4007048614FF00000244908604FF01E
:1013200080002349486108614FF4007008614FF460
:10133000807008614FF4007048614FF0C1001B4994
:1013400008604FF080001A49486108614FF400704E
:1013500008614FF4807008614FF4007048614FF0ED
:101360003000124908604FF080001149486108615F
:101370004FF4007008614FF0ED00FFF709FC4FF4E7
:1013800080700B4908614FF4007048614FF06400B1
:10139000064908604FF080000549486108614FF434
:1013A000007008614FF48070086114E00C0C01407B
:1013B0000010014014000020100000200010024026
:1013C000040C0140204C43442049443A25780D0A3E
:1013D00000000000FDE34FF4007048614FF003008F
:1013E000FE4908604FF08000FD49486108614FF4F4
:1013F000007008614FF4807008614FF4007048611C
:101400004FF01200F54908604FF08000F449486140
:1014100008614FF4007008614FF4807008614FF468
:10142000007048614FF08100EC4908604FF0800087
:10143000EB49486108614FF4007008614FF0E80023
:10144000FFF7A6FB4FF48070E54908614FF4007088
:1014500048614FF08500E14908604FF08000E049A5
:10146000486108614FF4007008614FF480700861B2
:101470004FF4007048614FF01000D84908604FF0F9
:101480008000D749486108614FF4007008614FF44B
:10149000807008614FF4007048614FF07A00CF49C6
:1014A00008604FF08000CE49486108614FF4007039
:1014B00008614FF0CB00FFF76BFB4FF48070C84919
:1014C00008614FF4007048614FF03900C34908606B
:1014D0004FF08000C249486108614FF40070086114
:1014E0004FF4807008614FF4007048614FF02C0099
:1014F000BA4908604FF08000B949486108614FF46B
:10150000007008614FF4807008614FF4007048610A
:101510004FF00000B14908604FF08000B0494861C9
:1015200008614FF4007008614FF4807008614FF457
:10153000007048614FF03400A84908604FF0800007
:10154000A749486108614FF4007008614FF480704A
:1015500008614FF4007048614FF002009F49086035
:101560004FF080009E49486108614FF400700861A7
:101570004FF0F700FFF70CFB4FF4807098490861BB
:101580004FF4007048614FF02000944908604FF01C
:1015900080009349486108614FF4007008614FF082
:1015A000EA00FFF7F5FA4FF480708D4908614FF4B7
:1015B000007048614FF00000884908604FF08000DB
:1015C0008749486108614FF4007008614FF48070EA
:1015D00008614FF4007048614FF000007F490860D7
:1015E0004FF080007E49486108614FF40070086147
:1015F0004FF0C000FFF7CCFA4FF4807078490861D3
:101600004FF4007048614FF01B00744908604FF0C0
:1016100080007349486108614FF4007008614FF021
:10162000C100FFF7B5FA4FF480706D4908614FF4BF
:10163000007048614FF00100684908604FF0800079
:101640006749486108614FF4007008614FF0C500B8
:10165000FFF79EFA4FF48070614908614FF4007003
:1016600048614FF030005D4908604FF080005C49F0
:10167000486108614FF4007008614FF480700861A0
:101680004FF4007048614FF03000544908604FF04B
:1016900080005349486108614FF4007008614FF0C1
:1016A000C700FFF775FA4FF480704D4908614FF499
:1016B000007048614FF0B700484908604FF0800063
:1016C0004749486108614FF4007008614FF03600E7
:1016D000FFF75EFA4FF48070414908614FF40070E3
:1016E00048614FF048003D4908604FF080003C4998
:1016F000486108614FF4007008614FF03A00FFF74D
:1017000047FA4FF48070364908614FF40070486121
:101710004FF05500314908604FF080003049486172
:1017200008614FF4007008614FF0B100FFF730FA24
:101730004FF480702A4908614FF4007048614FF0FF
:101740000000264908604FF0800025494861086183
:101750004FF4007008614FF4807008614FF400701E
:1017600048614FF01A001D4908604FF080001C4985
:10177000486108614FF4007008614FF0B600FFF750
:1017800007FA4FF48070164908614FF40070486101
:101790004FF00A00114908604FF08000104948617D
:1017A00008614FF4007008614FF4807008614FF4D5
:1017B000007048614FF0A200084908604FF08000B7
:1017C0000749486108614FF4007008614FF0F2006A
:1017D000FFF7DEF94FF48070014903E00C0C014083
:1017E0000010014008614FF4007048614FF00000A4
:1017F000FE4908604FF08000FD49486108614FF4E0
:10180000007008614FF02600FFF7C2F94FF48070B6
:10181000F74908614FF4007048614FF00100F34947
:1018200008604FF08000F249486108614FF4007091
:1018300008614FF0E000FFF7ABF94FF48070EC491E
:1018400008614FF4007048614FF00F00E7490860ED
:101850004FF08000E649486108614FF4007008616C
:101860004FF4807008614FF4007048614FF02A0017
:10187000DE4908604FF08000DD49486108614FF49F
:10188000007008614FF4807008614FF40070486187
:101890004FF02800D54908604FF08000D4494861D6
:1018A00008614FF4007008614FF4807008614FF4D4
:1018B000007048614FF00800CC4908604FF080008C
:1018C000CB49486108614FF4007008614FF48070A3
:1018D00008614FF4007048614FF00E00C349086082
:1018E0004FF08000C249486108614FF40070086100
:1018F0004FF4807008614FF4007048614FF00800A9
:10190000BA4908604FF08000B949486108614FF456
:10191000007008614FF4807008614FF400704861F6
:101920004FF05400B14908604FF08000B049486161
:1019300008614FF4007008614FF4807008614FF443
:10194000007048614FF0A900A84908604FF080007E
:10195000A749486108614FF4007008614FF4807036
:1019600008614FF4007048614FF043009F490860E0
:101970004FF080009E49486108614FF40070086193
:101980004FF4807008614FF4007048614FF00A0016
:10199000964908604FF080009549486108614FF40E
:1019A000007008614FF4807008614FF40070486166
:1019B0004FF00F008D4908604FF080008C4948615E
:1019C00008614FF4007008614FF4807008614FF4B3
:1019D000007048614FF00000844908604FF08000BB
:1019E0008349486108614FF4007008614FF48070CA
:1019F00008614FF4007048614FF000007B490860B7
:101A00004FF080007A49486108614FF40070086126
:101A10004FF4807008614FF4007048614FF000008F
:101A2000724908604FF080007149486108614FF4C5
:101A3000007008614FF4807008614FF400704861D5
:101A40004FF00000694908604FF080006849486124
:101A500008614FF4007008614FF0E100FFF798F85B
:101A60004FF48070624908614FF4007048614FF094
:101A700000005E4908604FF080005D4948610861E0
:101A80004FF4007008614FF4807008614FF40070EB
:101A900048614FF01500554908604FF080005449E7
:101AA000486108614FF4007008614FF4807008616C
:101AB0004FF4007048614FF017004C4908604FF038
:101AC00080004B49486108614FF4007008614FF491
:101AD000807008614FF4007048614FF0070043497F
:101AE00008604FF080004249486108614FF400707F
:101AF00008614FF4807008614FF4007048614FF046
:101B000011003A4908604FF0800039494861086186
:101B10004FF4007008614FF4807008614FF400705A
:101B200048614FF00600314908604FF080003049AD
:101B3000486108614FF4007008614FF480700861DB
:101B40004FF4007048614FF02B00284908604FF0B7
:101B500080002749486108614FF4007008614FF424
:101B6000807008614FF4007048614FF056001F49C3
:101B700008604FF080001E49486108614FF4007012
:101B800008614FF4807008614FF4007048614FF0B5
:101B90003C00164908604FF0800015494861086113
:101BA0004FF4007008614FF4807008614FF40070CA
:101BB00048614FF005000D4908604FF080000C4966
:101BC000486108614FF4007008614FF4807008614B
:101BD00000E001E14FF4007048614FF0100003494C
:101BE00008604FF080000249486103E00C0C01409E
:101BF0000010014008614FF4007008614FF48070DC
:101C000008614FF4007048614FF00F00FE49086012
:101C10004FF08000FD49486108614FF40070086191
:101C20004FF4807008614FF4007048614FF03F003E
:101C3000F54908604FF08000F449486108614FF4AD
:101C4000007008614FF4807008614FF400704861C3
:101C50004FF03F00EC4908604FF08000EB494861CD
:101C600008614FF4007008614FF4807008614FF410
:101C7000007048614FF00F00E34908604FF08000AA
:101C8000E249486108614FF4007008614FF02B0091
:101C9000FEF77EFF4FF48070DC4908614FF400705E
:101CA00048614FF00000D84908604FF08000D749E4
:101CB000486108614FF4007008614FF4807008615A
:101CC0004FF4007048614FF00000CF4908604FF0BA
:101CD0008000CE49486108614FF4007008614FF4FC
:101CE000807008614FF4007048614FF00100C649F0
:101CF00008604FF08000C549486108614FF40070EA
:101D000008614FF4807008614FF4007048614FF033
:101D10003F00BD4908604FF08000BC494861086140
:101D20004FF4007008614FF02A00FEF731FF4FF4C6
:101D30008070B64908614FF4007048614FF00000B0
:101D4000B14908604FF08000B049486108614FF424
:101D5000007008614FF4807008614FF400704861B2
:101D60004FF00000A84908604FF08000A749486183
:101D700008614FF4007008614FF4807008614FF4FF
:101D8000007048614FF000009F4908604FF08000EC
:101D90009E49486108614FF4007008614FF48070FB
:101DA00008614FF4007048614FF0EF0096490860F9
:101DB0004FF080009549486108614FF40070086158
:101DC0004FF01100FEF7E4FE7820FEF774FB2920A7
:101DD000FEF7DEFE01F08FB88D480088A0F51341B4
:101DE00025397DD147F6F001E520FEF718FF4FF4C5
:101DF00080710120FEF713FF4FF4E0610220FEF72F
:101E00000EFF41F230010320FEF709FF00210420FC
:101E1000FEF705FF40F202210820FEF700FF002137
:101E20000920FEF7FCFE00210A20FEF7F8FE002143
:101E30000C20FEF7F4FE00210D20FEF7F0FE00213D
:101E40000F20FEF7ECFE00211020FEF7E8FE072130
:101E50001120FEF7E4FE00211220FEF7E0FE002133
:101E60001320FEF7DCFE00210720FEF7D8FE41F22A
:101E700090611020FEF7D3FE40F227211120FEF7DB
:101E8000CEFE9D211220FEF7CAFE4FF4C85113204A
:101E9000FEF7C5FE25212920FEF7C1FE0D212B20CE
:101EA000FEF7BDFE07213020FEF7B9FE40F20331F8
:101EB0003120FEF7B4FE03213220FEF7B0FE40F2DF
:101EC00006213520FEF7ABFE08213620FEF7A7FEDF
:101ED00040F206413720FEF7A2FE4FF4417100E0C8
:101EE00058E03820FEF79BFE07213920FEF797FEC9
:101EF00040F202613C20FEF792FE08213D20FEF7F1
:101F00008EFE00215020FEF78AFEEF215120FEF7C1
:101F100086FE00215220FEF782FE40F23F11532040
:101F2000FEF77DFE4FF427416020FEF778FE012189
:101F30006120FEF774FE00216A20FEF770FE00218A
:101F40008020FEF76CFE00218120FEF768FE002154
:101F50008220FEF764FE00218320FEF760FE002150
:101F60008420FEF75CFE00218520FEF758FE10213C
:101F70009020FEF754FE4FF4C0619220FEF74FFE12
:101F800040F233110720FEF74AFE22210020FEF71F
:101F900046FE1FE71E480088A0F5134128397DD171
:101FA0001021E720FEF73BFE01210020FEF737FE5F
:101FB0004FF480710120FEF732FE4FF4E061022001
:101FC000FEF72DFE41F230010320FEF728FE00212E
:101FD0000420FEF724FE40F207210820FEF71FFE32
:101FE00000210920FEF71BFE00210A20FEF717FE44
:101FF00001210C20FEF713FE00210D20FEF70FFE3D
:1020000000210F2006E000000C0C014000100140F0
:1020100014000020FEF703FE00211020FEF7FFFD54
:1020200007211120FEF7FBFD00211220FEF7F7FD2E
:1020300000211320FEF7F3FD3220FEF73CFA41F2B7
:1020400090511020FEF7EBFD40F227211120FEF702
:10205000E6FD3220FEF72FFA9C211220FEF7DFFD6D
:102060003220FEF728FA4FF4C8511320FEF7D7FDAF
:1020700023212920FEF7D3FD0E212B20FEF7CFFDD3
:102080003220FEF718FA00212020FEF7C8FD40F2AA
:102090003F112120FEF7C3FD322000E08FE0FEF764
:1020A0000AFA07213020FEF7BAFD40F2077131200D
:1020B000FEF7B5FD06213220FEF7B1FD40F20471B6
:1020C0003520FEF7ACFD41F604713620FEF7A7FD82
:1020D00004213720FEF7A3FD00213820FEF79FFDE5
:1020E00040F206713920FEF79AFD40F201713C2062
:1020F000FEF795FD0F213D20FEF791FD3220FEF702
:10210000DAF900215020FEF78AFDEF215120FEF779
:1021100086FD00215220FEF782FD40F23F11532040
:10212000FEF77DFD4FF427416020FEF778FD012189
:102130006120FEF774FD00216A20FEF770FD00218A
:102140008020FEF76CFD00218120FEF768FD002154
:102150008220FEF764FD00218320FEF760FD002150
:102160008420FEF75CFD00218520FEF758FD10213C
:102170009020FEF754FD00219220FEF750FD032130
:102180009320FEF74CFD4FF488719520FEF747FD34
:1021900000219720FEF743FD00219820FEF73FFD28
:1021A00040F233110720FEF73AFD00212020FEF710
:1021B00036FD40F23F112120FEF731FD0AE6FE48D0
:1021C0000088A0F51341203904D0FB480088B0F501
:1021D000134F7DD100210846FEF721FD4FF4807199
:1021E0000120FEF71CFD4FF4E0610220FEF717FD11
:1021F00041F230010320FEF712FD00210420FEF71A
:102200000EFD40F202210820FEF709FD0021092001
:10221000FEF705FD00210A20FEF701FD01210C203B
:10222000FEF7FDFC00210D20FEF7F9FC00210F2038
:10223000FEF7F5FC3220FEF73EF940F201110720CF
:10224000FEF7EDFC3220FEF736F94FF486511020F0
:10225000FEF7E5FC07211120FEF7E1FC4FF4887141
:102260001220FEF7DCFC4FF430611320FEF7D7FCA0
:1022700000212920FEF7D3FC44F210012B20FEF7A9
:10228000CEFC00215020FEF7CAFCEF215120FEF7C2
:10229000C6FC00215220FEF7C2FC40F23F11532041
:1022A000FEF7BDFC4FF41C516020FEF7B8FC012185
:1022B0006120FEF7B4FC00216A20FEF7B0FC00218B
:1022C0008020FEF7ACFC00218120FEF7A8FC00E096
:1022D0002EE000218220FEF7A2FC00218320FEF7E1
:1022E0009EFC00218420FEF79AFC00218520FEF749
:1022F00096FC10219020FEF792FC00219220FEF720
:102300008EFC01219320FEF78AFC4FF48871952002
:10231000FEF785FC00219720FEF781FC0021982024
:10232000FEF77DFC40F273110720FEF778FC51E5C3
:10233000A1480088A0F5A84108397DD14FF48071EB
:102340000120FEF76CFC4FF4E0610220FEF767FC11
:1023500041F230010320FEF762FC00210420FEF769
:102360005EFC40F207210820FEF759FC00210920FD
:10237000FEF755FC00210A20FEF751FC00210C203D
:10238000FEF74DFC00210D20FEF749FC00210F2037
:10239000FEF745FC1420FEF78EF841F2B0611020E4
:1023A000FEF73DFC01211120FEF739FC0121172029
:1023B000FEF735FC4FF49C711220FEF730FC4FF411
:1023C00000611320FEF72BFC09212920FEF727FCD2
:1023D00009212A20FEF723FC0021A420FEF71FFC80
:1023E00000215020FEF71BFCEF215120FEF717FCC7
:1023F00000215220FEF713FC40F23F115320FEF75C
:102400000EFC4FF41C516020FEF709FC01216120F5
:10241000FEF705FC00216A20FEF701FC0021802068
:10242000FEF7FDFB00218120FEF7F9FB0021822051
:10243000FEF7F5FB002100E024E08320FEF7EFFB30
:1024400000218420FEF7EBFB00218520FEF7E7FB4F
:1024500013219020FEF7E3FB00219220FEF7DFFB23
:1024600003219320FEF7DBFB4FF488719520FEF7E4
:10247000D6FB40F273110720FEF7D1FB3220FEF7A6
:102480001AF8A7E44C480088A0F5A85105397DD179
:102490000720FEF7C4FB3220FEF70DF84FF48E71D3
:1024A0001220FEF7BCFB0121A420FEF7B8FB0F2190
:1024B0000820FEF7B4FB08210A20FEF7B0FB082134
:1024C0000D20FEF7ACFB40F207713020FEF7A7FBB2
:1024D00007213120FEF7A3FB40F203613220FEF713
:1024E0009EFB4FF4E0613320FEF799FB40F202219E
:1024F0003420FEF794FB02213520FEF790FB41F6D5
:102500000F713620FEF78BFB40F207713720FEF784
:1025100086FB00213820FEF782FB00213920FEF7E0
:102520007EFB40F207713A20FEF779FB00213B2049
:10253000FEF775FB07213C20FEF771FB00213D20D3
:10254000FEF76DFB3220FDF7B6FF01210720FEF7F5
:1025500066FB01211720FEF762FB3220FDF7ABFF7F
:102560004FF4BD511020FEF75AFB40F21721112005
:10257000FEF755FB4FF48F711220FEF750FB4FF41E
:1025800070611320FEF74BFB002100E097E02A204A
:10259000FEF745FB0A212920FEF741FB4FF49F710E
:1025A0001220FEF73CFB00215020FEF738FBEF2104
:1025B0005120FEF734FB01E01400002000215220DE
:1025C000FEF72DFB40F23F115320FEF728FB4FF49E
:1025D0001C516020FEF723FB01216120FEF71FFB49
:1025E00000216A20FEF71BFB00218020FEF717FB6D
:1025F00000218120FEF713FB00218220FEF70FFB54
:1026000000218320FEF70BFB00218420FEF707FB4F
:1026100000218520FEF703FB13219020FEF7FFFA2F
:102620004FF440719220FEF7FAFA05219320FEF74D
:10263000F6FA00219520FEF7F2FA00219720FEF726
:10264000EEFA00219820FEF7EAFA4FF4807101209B
:10265000FEF7E5FA4FF4E0610220FEF7E0FA41F2FE
:1026600030010320FEF7DBFA00210420FEF7D7FA41
:1026700000210C20FEF7D3FA00210F20FEF7CFFA3D
:1026800000212020FEF7CBFA00212120FEF7C7FA17
:1026900021210720FEF7C3FA1420FDF70CFF61216A
:1026A0000720FEF7BCFA1420FDF705FF40F2731176
:1026B0000720FEF7B4FA1420FDF7FDFE69E4FE489A
:1026C0000088A0F5354105397DD10846FEF7A7FA07
:1026D00000210846FEF7A3FA00210846FEF79FFAFC
:1026E00000210846FEF79BFA0121A420FEF797FA85
:1026F0001420FDF7E0FE4FF41C516020FEF78FFA26
:1027000040F202210820FEF78AFA4FF405713020CA
:10271000FEF785FA43F215713120FEF780FA40F298
:1027200004613220FEF77BFA40F616613320FEF793
:1027300076FA42F211213420FEF771FA4FF4A851D3
:102740003520FEF76CFA48F207513620FEF767FA9B
:1027500041F207413720FEF762FA41F20341382087
:10276000FEF75DFA20213920FEF759FA1A21902050
:10277000FEF755FA00211020FEF751FA072111202B
:10278000FEF74DFA00211220FEF749FA002113202E
:10279000FEF745FA1420FDF78EFE4FF4E661102097
:1027A000FEF73DFA40F237111120FEF738FA1420F7
:1027B000FDF781FE4FF4DC711220FEF730FA142091
:1027C000FDF779FE00E083E04FF470611320FEF71F
:1027D00026FA80212A20FEF722FA48212920FEF736
:1027E0001EFA1420FDF767FE4FF480710120FEF7FA
:1027F00016FA4FF4E0610220FEF711FA41F230219F
:102800000320FEF70CFA40F202210820FEF707FA37
:1028100000210A20FEF703FA00210C20FEF7FFF941
:1028200000210D20FEF7FBF930210E20FEF7F7F90D
:1028300000215020FEF7F3F9EF215120FEF7EFF9C8
:1028400000215220FEF7EBF940F23F115320FEF732
:10285000E6F94FF41C516020FEF7E1F901216120F7
:10286000FEF7DDF900216A20FEF7D9F91121902049
:10287000FEF7D5F94FF4C0619220FEF7D0F940F28F
:1028800002419320FEF7CBF902219420FEF7C7F90D
:102890001420FDF710FE01210720FEF7C0F91420D7
:1028A000FDF709FE61210720FEF7B9F940F2731127
:1028B0000720FEF7B4F900212020FEF7B0F900212F
:1028C0002120FEF7ACF922210020FEF7A8F912E33F
:1028D00079480088A0F5454105397DD10846FEF7C5
:1028E0009EF900210846FEF79AF91420FDF7E3FD52
:1028F00000210846FEF793F900210846FEF78FF9FC
:1029000000210846FEF78BF900210846FEF787F9FB
:102910000121A420FEF783F91420FDF7CCFD4FF42C
:102920001C516020FEF77BF940F606010820FEF7F7
:1029300076F940F203713020FEF771F90121312060
:10294000FEF76DF904213220FEF769F94FF4817129
:102950003320FEF764F94FF440713420FEF75FF93D
:1029600040F203113520FEF75AF91F213620FEF7F9
:1029700056F940F203713720FEF751F90121382052
:10298000FEF74DF904213920FEF749F91521902071
:10299000FEF745F94FF482611020FEF740F940F24E
:1029A00047211120FEF73BF94FF4DE711220FEF7AC
:1029B00036F94FF460611320FEF731F97820FDF706
:1029C0007AFD4FF480710120FEF729F94FF4007170
:1029D0000220FEF724F900E050E041F2300103202C
:1029E000FEF71DF908210A20FEF719F900210C2035
:1029F000FEF715F920210E20FEF711F900210F2016
:102A0000FEF70DF900212020FEF709F90021212011
:102A1000FEF705F93D212A20FEF701F91420FDF704
:102A20004AFD2D212920FEF7FAF800215020FEF75B
:102A3000F6F84DF2EF015120FEF7F1F80021522097
:102A4000FEF7EDF840F23F115320FEF7E8F80021C1
:102A50006120FEF7E4F800216A20FEF7E0F84FF469
:102A600040719220FEF7DBF805219320FEF7D7F89E
:102A70004FF480710720FEF7D2F83CE20E48008840
:102A8000A0F5094189397DD101210020FEF7C7F861
:102A90004AF6A4010320FEF7C2F800210C20FEF73D
:102AA000BEF840F60C010D20FEF7B9F84FF42C519A
:102AB0000E20FEF7B4F801E014000020B0211E2023
:102AC000FEF7ADF842F63F310120FEF7A8F84FF4CB
:102AD000C0610220FEF7A3F800211020FEF79FF846
:102AE00046F270011120FEF79AF800210520FEF74A
:102AF00096F800210620FEF792F84EF61C7116207B
:102B0000FEF78DF803211720FEF789F840F23321F4
:102B10000720FEF784F800210B20FEF780F8002143
:102B20000F20FEF77CF800214120FEF778F8002105
:102B30004220FEF774F800214820FEF770F840F2BA
:102B40003F114920FEF76BF800214A20FEF767F895
:102B500000214B20FEF763F84FF46F414420FEF74D
:102B60005EF800214520FEF75AF840F23F1146205A
:102B7000FEF755F840F207713020FEF750F84FF499
:102B8000017100E040E03120FEF749F84FF4017197
:102B90003220FEF744F840F202513320FEF73FF8AE
:102BA00040F207513420FEF73AF84FF40171352016
:102BB000FEF735F84FF401713620FEF730F840F299
:102BC00002513720FEF72BF840F202313A20FEF78F
:102BD00026F840F202313B20FEF721F800212320A5
:102BE000FEF71DF800212420FEF719F84FF40041EC
:102BF0002520FEF714F800214F20FEF710F80021E1
:102C00004E20FEF70CF876E1F9480088A0F58A41DD
:102C100031397DD101210020FEF701F80A20FDF7AE
:102C20004AFC41F228611020FDF7F9FF0E21122025
:102C3000FDF7F5FF40F639211320FDF7F0FF0A20DC
:102C4000FDF739FC40211120FDF7E9FF5021152047
:102C5000FDF7E5FF0A20FDF72EFC1E211220FDF7EF
:102C6000DEFF0A20FDF727FC4FF4B1511020FDF7DD
:102C7000D6FF42F639211320FDF7D1FF0A20FDF7D8
:102C80001AFC4FF480710120FDF7C9FF4FF4407129
:102C90000220FDF7C4FF41F230010320FDF7BFFF22
:102CA00040F202210820FDF7BAFF08210A20FDF7B3
:102CB000B6FF00213020FDF7B2FF40F20241312083
:102CC000FDF7ADFF4FF483713220FDF7A8FF40F20E
:102CD00003513320FDF7A3FF4FF482713420FDF739
:102CE0009EFF40F201313520FDF799FF40F2077158
:102CF0003620FDF794FF40F205313720FDF78FFFB6
:102D00004FF402713820FDF78AFF40F60B7100E0A6
:102D10003CE03920FDF783FF02214120FDF77FFFD2
:102D20004FF41C516020FDF77AFF01216120FDF76F
:102D300076FF4FF404719020FDF771FF4FF4857119
:102D40009220FDF76CFF04219320FDF768FF4FF4FC
:102D50008071A020FDF763FF01210720FDF75FFFD1
:102D600021210720FDF75BFF23210720FDF757FFF7
:102D700033210720FDF753FF40F233110720FDF701
:102D80004EFF0021A020FDF74AFFB4E098480088DC
:102D9000A0F58A413539F8D130211520FDF73FFFE4
:102DA00010219A20FDF73BFF20211120FDF737FF6E
:102DB00043F228411020FDF732FF02211220FDF7D7
:102DC0002EFF41F238011320FDF729FF2820FDF7DF
:102DD00072FB12210846FDF722FF2820FDF76BFB4E
:102DE00043F220411020FDF71AFF43F2380113206F
:102DF000FDF715FF4620FDF75EFB00213020FDF7B3
:102E00000EFF40F202413120FDF709FF40F2073189
:102E10003220FDF704FF4FF441713320FDF7FFFE30
:102E200004213420FDF7FBFE40F201413520FDF77F
:102E3000F6FE40F207713620FDF7F1FE40F2053153
:102E40003720FDF7ECFE4FF4C2613820FDF7E7FEB6
:102E50004FF4C2613920FDF7E2FE4FF4807101208A
:102E6000FDF7DDFE4FF440710220FDF7D8FE41F280
:102E700030010320FDF7D3FE40F608010820FDF7DE
:102E8000CEFE08210A20FDF7CAFE4FF41C51602037
:102E9000FDF7C5FE01216120FDF7C1FE4FF49F71D2
:102EA0009020FDF7BCFE4FF480719220FDF7B7FE35
:102EB0004FF480719320FDF7B2FE4FF44051A020F3
:102EC000FDF7ADFE1021A320FDF7A9FE012107208B
:102ED000FDF7A5FE21210720FDF7A1FE23210720F4
:102EE000FDF79DFE33210720FDF799FE40F23311D7
:102EF0000720FDF794FE0020FDF799FF4FF0010039
:102F00003C4908604FF6FF70FEF75CF910BD2DE9F3
:102F1000F05F05460E4617469846DDF828A04FF0AC
:102F2000000B5846FDF783FFA7EB050000F10100F9
:102F30001FFA80FB344622E02146284603F072F94E
:102F4000FDF78CFE4FF0000914E04FF480702A4921
:102F500008614FF4007048612848C0F800A04FF0A5
:102F60008000486108614FF40070086109F10100B8
:102F70001FFA80F9D945E8DB04F1010084B2444529
:102F8000DADD0020FDF753FFBDE8F09F2DE9FF4F8C
:102F900085B081468A464FF0000004900390079860
:102FA000A0EB09050898A0EB0A06CDF80890CDF82B
:102FB00004A0002D02DD4FF0010707E015B94FF026
:102FC000000703E04FF0FF37C5F10005002E02DDDA
:102FD0004FF0010807E016B94FF0000803E04FF08A
:102FE000FF38C6F10006B5420ADD2C4609E00000B4
:102FF00014000020A8012242001001400C0C0140E6
:1030000034464FF0000B23E0019881B2029880B261
:10301000FEF7BBF8049828440490039830440390CA
:103020000498A04206DD0498A0EB040004900298E6
:10303000384402900398A04206DD0398A0EB0400F8
:1030400003900198404401900BF101001FFA80FBAE
:10305000601C8345D8DD09B0BDE8F08F2DE9F04153
:1030600004460D4616461F462B4632462946204644
:10307000FFF78CFF3B46224629462046FFF786FF96
:103080003B46324639462046FFF780FF3B463246F4
:1030900029463046FFF77AFFBDE8F0812DE9F04779
:1030A00006460F4690464FF0000445464FF0030099
:1030B000A0EB48094FE03A1B91B2721B90B2FEF7A9
:1030C00064F83A1B91B2721990B2FEF75EF87A1961
:1030D00091B2321B90B2FEF758F83A1B91B2721BB4
:1030E00090B2FEF752F87A1B91B2321B90B2FEF703
:1030F0004CF83A1991B2721990B2FEF746F87A1B61
:1031000091B2321990B2FEF740F87A1991B23219A1
:1031100090B2FEF73AF83A1991B2721B90B2FEF7EC
:1031200034F804F10104B9F1000F05DA4FEA840024
:1031300000F10600814408E0A4EB05004FEA80009E
:1031400000F10A008144A5F101057A1991B2321902
:1031500090B2FEF71AF8AC42ADDDBDE8F0872DE97C
:10316000F84F0746894616461D46BB4699480088D3
:103170000090E82F02DCB9F59C7F01DDBDE8F88FF7
:10318000A6F12000C6B20A9800283BD1044636E0DA
:103190000C2D07D106EB46008F4901EB800010F89B
:1031A00004A004E08D4800EB061010F804A04FF0D6
:1031B000000817E01AF0010F03D086490098088034
:1031C00003E0874800888349088049463846FDF770
:1031D000DCFF4FEA6A0A07F1010087B208F101003B
:1031E00000F0FF0805EBD571B8EB610FE2DB5F463D
:1031F00009F101001FFA80F904F10100C4B2AC42E8
:10320000C6DB2FE04FF000042AE00C2D07D106EBBF
:103210004600714901EB800010F804A004E06F48FB
:1032200000EB061010F804A04FF0000810E01AF0B0
:10323000010F07D009EB040291B207EB080290B22C
:10324000FDF7A3FF4FEA6A0A08F1010000F0FF084A
:1032500005EBD571B8EB610FE9DB04F10100C4B2F5
:10326000AC42D2DB5B490098088000BF86E710B50E
:1032700002464FF0010000E050430B00A1F10104B1
:10328000E1B2F9D110BD2DE9FF4F81B0074691465B
:103290001E460E9D4FF0000A54463BE0301B401E78
:1032A000C1B20A20FFF7E3FFB9FBF0F04FF00A01CB
:1032B000B0FBF1F201FB1208BAF1000F16D1701E3B
:1032C000A04213DDB8F1000F0ED10020AB4605EB94
:1032D000DB71491001FB0471009088B22B4620225B
:1032E0000299FFF73CFF12E04FF0010A0020AB46C5
:1032F00005EBDB71491001FB0471009088B22B468D
:1033000008F13001CAB20299FFF729FF00BF04F1AA
:103310000100C4B2B442C1DB05B0BDE8F08F2DE9B5
:10332000FF4F81B0074690461D46DDE90E6A4FF01B
:10333000000421E0281B401EC1B20A20FFF797FFBE
:10334000B8FBF0F04FF00A01B0FBF1F201FB1209FB
:10335000B34606EBDB714FEA610101FB047188B2F1
:10336000334609F13001CAB2CDF800A00299FFF747
:10337000F6FE04F10100C4B2AC42DBDB05B0BDE8EF
:10338000F08FF8B505460E4614461EE0E82D04DD24
:103390004FF0000506F1100086B2B6F59C7F07DD00
:1033A0004FF00000054606464FF6FF70FDF70AFF96
:1033B000002000902278102331462846FFF7CFFEE8
:1033C00005F1080085B204F1010420780028DDD160
:1033D000F8BD000010000020126D00088671000882
:1033E000120000204FF00A014FF001006E4A92696E
:1033F00042F010026C4B9A616C4A126822F47F0210
:103400006A4B1A601A46126842F403021A601A469E
:10341000D26842F02002DA60704770B54FF00F06B4
:1034200038E04FF00100624908604FF00A00FDF7F4
:1034300042F860A000F0D4F94FF000050BE00A203C
:10344000FDF739F85E48008810F4004F00D004E022
:1034500005F10100C5B2142DF1DB00BF4FF00000F3
:10346000534908605648008810F4004F12D0544861
:103470000088C4B24FF00000514908800D2C09D1DA
:10348000504800782B2805D14E488079A0F13000B3
:10349000C4B204E03000A6F10101CEB2C1D100BF38
:1034A0000EB94FF0FF04204670BD2DE9F0410546EE
:1034B0004FF00F0736E04FF001003D4908604FF034
:1034C0000A00FCF7F8FF29463FA000F089F94FF009
:1034D00000003F49C1F8900106460BE038480088DB
:1034E00010F4004F00D007E00520FCF7E4FF06F1E0
:1034F0000100C6B2142EF1DB00BF3148008810F481
:10350000004F0FD02E480088C4B24FF000002C4965
:103510000880042C06D12B4800784F2802D14FF0A8
:10352000000404E03800A7F10101CFB2C3D100BF0D
:103530000FB94FF0FF042046BDE8F08170B5044696
:103540004FF001001A4908604FF00A00FCF7B3FF82
:1035500021461DA000F044F94FF000060BE018488A
:10356000008810F4004F00D007E00A20FCF7A3FF0A
:1035700006F10100C6B2322EF1DB00BF4FF00000B1
:103580000B4908600E48008810F4004F0BD00C481F
:103590000088C5B24FF00000094908800949485524
:1035A0000CA001F053FB70BD001002400010014060
:1035B0009001224241542B524F4C453F0D0A0000CE
:1035C000160000201003002025730D0A00000000E3
:1035D000000022420D0A25730000000050B14FF098
:1035E00000019A4A11809A49098841F00101984ADC
:1035F000118005E09649098821F00101944A118063
:10360000704700B59348008810F0200F20D09248F2
:103610000088C3B291480088C82813DA4FF0000030
:103620008A4908808D48008810B90120FFF7D6FF2D
:103630008A480188008800F10100884A1080884883
:10364000435405E08548008840F4004083490880E1
:1036500000BD70B505460C468248C06940F00400C4
:103660008049C86180480580A0F1040004807F483B
:10367000008840F001007D4908807548008840F0CE
:103680000100734908804FF002034FF01E024FF013
:1036900003014FF00100FCF76EFF70BD70B50446EA
:1036A0000E4615466F48406940F001006D4948617B
:1036B0004FF00500FCF71EFFA660E5604FF000002C
:1036C0002060206840F010002060206820602068A2
:1036D0002060206840F08000206020682060206822
:1036E0002060206840F4805020602068206070BD19
:1036F00070B504460D465B48806940F480705949B6
:1037000088615B48406820F0F000594948600846ED
:10371000406840F0300048605248806940F008003E
:10372000504988615348006820F47F40514908603F
:103730000846006840F40B4008604A48C06940F4FD
:1037400080204849C8610846006940F4802008612B
:103750000846006920F480200861474804FB00F017
:10376000B0FBF5F04549088001F10400008842F201
:103770000C0140EA0100424908804FF080004149B5
:1037800008803549404A4148FFF788FF3C48008897
:1037900040F480703A4908800846008840F02000D4
:1037A00008804FF002034FF027024FF00301184644
:1037B000FCF7E1FE41F61F416320FFF74AFF4FF09F
:1037C000000026490880FFF709FF70BD026822F05B
:1037D000010202604160026842F00102026070472B
:1037E0000FB438B505A800902748009A049901F055
:1037F0001BFA4FF00000009000BF24481C38406BBB
:103800000028FAD1204801F0CFFBC4B221461F485E
:10381000FFF7DCFF38BC5DF814FB00B51348001D52
:10382000008810F0010F0FD00C48008840F40040D1
:103830000A4908801648008820F0010014490880D1
:103840004FF00000FFF7CAFE00BD00002408004052
:1038500000080040004800400448004016000020D6
:1038600010030020001002402C0800400C0800400B
:1038700000200140040C014040420F000848004075
:103880000C48004014480040480200201C00024040
:10389000100800408848C07A492804D14FF0010040
:1038A000864908703CE08448C07A4A2806D182489C
:1038B000407A022802D18149087031E07E48C07AFE
:1038C0004A2806D17C48407A032802D17B490870F7
:1038D00026E07948C07A4B2804D14FF0040077499C
:1038E00008701DE07448C07A4C2804D14FF00500E0
:1038F0007249087014E07048C07A4D2808D14FF022
:1039000006006E4908704FF012006D49087007E01C
:103910006B480078122803D14FF007006749087000
:10392000704700B56748008810F0200F18D066482F
:103930000088C2B2604865490978425463480078FB
:1039400000F1010061490870084600785C49097877
:10395000884205D14FF000005C490870FFF79AFFDC
:1039600000BD01464FF000000BE000BF554A128831
:1039700012F0400FFAD00A5C534B1A8000F101029A
:10398000D0B20C28F1DB70472DE9F05F05460E46FA
:103990004FEA061003F054F881464D4905FB01F04B
:1039A00003F04EF88246494602F068FF0746384663
:1039B00003F026F884B2204603F042F883463946E5
:1039C00003F025F982464FF0834103F04DF881461C
:1039D00003F016F880464FEA041404EB080084B2A2
:1039E0003C48806940F004003A4988610846C06953
:1039F00040F40030C8613848006820F47F40364900
:103A000008600846006840F40B40086031480069CF
:103A100040F400302F4908610846006920F4003066
:103A200008612E48048000F10400008842F20C0175
:103A300040EA01002A4908800846008840F4807066
:103A400008800846008840F0200008804FF00203FC
:103A50004FF026024FF001014FF00000FCF78BFD04
:103A6000BDE8F09F10B51FA296216420FFF789FCE6
:103A700010BD10B51FA296216420FFF782FC10BD77
:103A800010B520A296216420FFF77BFC10BD10B575
:103A900020A296216420FFF774FC10BD10B521A26E
:103AA00096216420FFF76DFC10BD10B521A2962170
:103AB0006420FFF766FC10BDD80300200000002042
:103AC0001900002000440040044400401800002079
:103AD00040420F000010024000080140084400402E
:103AE0000C44004073746172742020636865636BDA
:103AF000210000007468617420636F7272656374E2
:103B000021000000706C6561736520696E707574CA
:103B1000210000007A68692020696E707574656400
:103B200021000000706C6561736520626C6F6F64CA
:103B30002100000074696D652020202074696D6586
:103B40002100000010B58CB004464FF01E030BAAF4
:103B500003A9204600F033FE0090009810B1012028
:103B60000CB010BD9DF82C0004444FF000000B90E9
:103B70000FE060489DF82C2050F8221003A800F0B8
:103B800077FD00B909E09DF82C0000F10100C0B2FA
:103B90000B909DF82C000828EBDB00BF9DF82C0053
:103BA00007287CD2DFE800F00405395D8FA4A3006C
:103BB00000BF51A001F04AF850A001F047F85FA003
:103BC00001F044F86DA001F041F87CA001F03EF84E
:103BD0008AA001F03BF899A001F038F8A5A001F007
:103BE00035F8ABA001F032F8AFA001F02FF8B4A087
:103BF00001F02CF8B8A001F029F8BDA001F026F8DA
:103C0000C2A001F023F8CEA001F020F8D9A001F065
:103C10001DF8E5A001F01AF8ABE237A001F016F8A4
:103C2000F1A001F013F84FF000000B900FE0FE48F8
:103C300000689DF82C2000EBC2004168FBA001F059
:103C400005F89DF82C0000F10100C0B20B90F64879
:103C5000007D9DF82C108842E9DC27A000F0F6FFDB
:103C600087E225A000F0F2FFF2A000F0EFFF4FF096
:103C700000000B901DE0EC4909689DF82C2001EB39
:103C8000C20101AB02AA486803A900F0C5FDE648DD
:103C900000689DF82C1050F8312003A900E066E27E
:103CA000F4A000F0D3FF9DF82C0000F10100C0B299
:103CB0000B90DD48007D9DF82C108842DBDC0EA0C7
:103CC00000F0C4FF55E20CA000F0C0FF0BAA03A94E
:103CD000204600F095FE9DF82C0038B9694603A8EF
:103CE00000F001FD0B909DF82C00CDE1E0E111E228
:103CF000E4E100004C0000200D0A00002D2D2D2DC8
:103D00002D2D2D2D2D2D2D2D2D2D2D2D2D2D2D2DE3
:103D10002D2D2D2D55534D4152542056322E382DD8
:103D20002D2D2D2D2D2D2D2D2D2D2D2D2D2D2D2DC3
:103D30002D2D2D2D2D2D2D200D0A00002020202091
:103D400055534D415254CAC7D3C9414C49454E54AD
:103D5000454BBFAAB7A2B5C4D2BBB8F6C1E9C7C923
:103D6000B5C4B4AEBFDAB5F7CAD4BBA5BDBBD7E9FD
:103D7000BCFE2CCDA8B9FD200D0A0000CBFC2CC444
:103D8000E3BFC9D2D4CDA8B9FDB4AEBFDAD6FACA62
:103D9000D6B5F7D3C3B3CCD0F2C0EFC3E6B5C4C831
:103DA000CEBACEBAAFCAFD2CB2A2D6B4D0D02ED2E3
:103DB000F2B4CB2CC4E3BFC90D0A0000D2D4CBE6C9
:103DC000D2E2B8FCB8C4BAAFCAFDB5C4CAE4C8EB05
:103DD000B2CECAFD28D6A7B3D6CAFDD7D628313071
:103DE0002F3136BDF8D6C629A1A2D7D6B7FBB4AEBF
:103DF000A1A2BAAFCAFDC8EB0D0A0000BFDAB5D860
:103E0000D6B7B5C8D7F7CEAAB2CECAFD292CB5A56C
:103E1000B8F6BAAFCAFDD7EEB6E0D6A7B3D6313002
:103E2000B8F6CAE4C8EBB2CECAFD2CB2A2D6A7B38C
:103E3000D6BAAFCAFDB7B5200D0A0000BBD8D6B5BB
:103E4000CFD4CABE2ED0C2D4F6B2CECAFDCFD4CA09
:103E5000BEBDF8D6C6C9E8D6C3B9A6C4DC2CD0C24C
:103E6000D4F6BDF8D6C6D7AABBBBB9A6C4DC2E0D06
:103E70000A000000BCBCCAF5D6A7B3D63A7777775C
:103E80002E6F70656E6564762E636F6D0D0A00008F
:103E900055534D415254D3D036B8F6CFB5CDB3C3F8
:103EA000FCC1EE3A0D0A00003F3A20202020BBF171
:103EB000C8A1B0EFD6FAD0C5CFA20D0A000000000D
:103EC00068656C703A20BBF1C8A1B0EFD6FAD0C5D6
:103ED000CFA20D0A000000006C6973743A20BFC9BC
:103EE000D3C3B5C4BAAFCAFDC1D0B1ED0D0A0A0043
:103EF00069643A202020BFC9D3C3BAAFCAFDB5C494
:103F00004944C1D0B1ED0D0A0A0000006865783A55
:103F10002020B2CECAFD3136BDF8D6C6CFD4CABE37
:103F20002CBAF3B8FABFD5B8F12BCAFDD7D6BCB4BA
:103F3000D6B4D0D0BDF8D6C6D7AABBBB0D0A0A00EE
:103F40006465633A2020B2CECAFD3130BDF8D6C6D2
:103F5000CFD4CABE2CBAF3B8FABFD5B8F12BCAFD7C
:103F6000D7D6BCB4D6B4D0D0BDF8D6C6D7AABBBBC2
:103F70000D0A0A00C7EBB0B4D5D5B3CCD0F2B1E08E
:103F8000D0B4B8F1CABDCAE4C8EBBAAFCAFDC3FB2E
:103F9000BCB0B2CECAFDB2A2D2D4BBD8B3B5BCFCC1
:103FA000BDE1CAF82E0D0A002D2D2D2D2D2D2D2D04
:103FB0002D2D2D2D2D2D2D2D2D2D2D2D2D2D2D2D31
:103FC0002D2D414C49454E54454B2D2D2D2D2D2D3C
:103FD0002D2D2D2D2D2D2D2D2D2D2D2D2D2D2D2D11
:103FE0002D2D2D200D0A00002D2D2D2D2D2D2D2DAB
:103FF0002D2D2D2D2D2D2D2D2D2D2D2D2D2D2D2DF1
:104000002DBAAFCAFDC7E5B5A52D2D2D2D2D2D2D12
:104010002D2D2D2D2D2D2D2D2D2D2D2D2D2D2D2DD0
:104020002D2D2D2D200D0A009400002025730D0A42
:10403000000000002D2D2D2D2D2D2D2D2D2D2D2D64
:104040002D2D2D2D2D2D2D2D2D2D2D2D2DBAAFCAF4
:10405000FD204944202D2D2D2D2D2D2D2D2D2D2DA7
:104060002D2D2D2D2D2D2D2D2D2D2D2D2D2D2D2D80
:10407000200D0A0025732069642069733A0D0A3007
:1040800058253038580D0A0020B9FEA0009900F0DC
:10409000DDFD0FE09DF82C00042801D002205FE533
:1040A000FBA000F0D3FD4FF00100FE49C87501E010
:1040B000022055E5F5A000F0C9FD5AE0F3A000F09C
:1040C000C5FD0BAA03A9204600F09AFC9DF82C0020
:1040D000D0B9694603A800F006FB0B909DF82C00B0
:1040E00020B9F1A0009900F0B1FD0FE09DF82C007F
:1040F000042801D0022033E5EEA000F0A7FD4FF028
:104100000000E849C87501E0022029E5DFA000F0C1
:104110009DFD2EE0DDA000F099FD0BAA03A920462D
:1041200000F06EFC9DF82C00D8B9694603A800F099
:10413000DAFA0B909DF82C0088B9DA48C07D012886
:1041400006D1009801460268DFA000F07FFD0AE07A
:10415000009801460268E0A000F078FD03E002202C
:10416000FEE40220FCE4C9A000F070FD01E00120A3
:10417000F6E400BF0020F3E410B54FF08040008A61
:1041800010F0010F02D0C749086980474FF0804006
:10419000008A20F001004FF08041088210BD70B508
:1041A00005460C46CF48C06940F00100CD49C861C2
:1041B0004FF0804085850485808940F001004FF0F4
:1041C000804188810846808940F040008881084607
:1041D000008840F0010008804FF002034FF01C02FD
:1041E0004FF003010846FCF7C6F970BD10B5044650
:1041F00004EBC40000EB04104FF00102C2EB80009E
:1042000081B24FF47A70FFF7CAFF4FF00100A54961
:10421000C87510BD30B595B0054613AB12AA09A9F3
:10422000284600F0F9FA044614B1204615B030BD16
:104230004FF00000149027E09A4909689DF850203B
:1042400001EBC20113AB11AA486801A900F0E4FA1E
:1042500004460CB12046E9E709A901A800F008FAD4
:1042600060B99DF844009DF84810884201DD0220A5
:10427000DCE79DF850008B4988750BE09DF85000F5
:1042800000F10100C0B214908648007D9DF85010E6
:104290008842D1DC00BF8348007D9DF850108842E1
:1042A00001D10420C2E714A9284600F021FC0446ED
:1042B0000CB12046BAE79DF850007A4948750020B5
:1042C000B4E7F0B59BB07748847D007DA04201DC67
:1042D0001BB0F0BD7349096801EBC40107AB08AA24
:1042E000486809A900F098FA09A97FA000F0AEFC7F
:1042F0004FF0000646E06B48018B012000FA06F003
:1043000001421BD022217AA000F0A0FC304600F030
:10431000E0FB644924314718394676A000F096FC4A
:10432000222173A000F092FC304600F0D2FB5D49E0
:104330002431084411A941F8260018E0304600F065
:10434000C8FB58492431085811A941F8260055489E
:10435000C07D30B911A850F8261067A000F076FC97
:1043600005E011A850F8261064A000F06FFC9DF83D
:104370002000401EB04202D062A000F067FC06F1AF
:104380000100C6B29DF820008642B4DB5EA000F0BA
:104390005DFC4448407D0B280DD2DFE800F0060D9F
:1043A000151E27323F4E5FB7CC003E49096851F8D1
:1043B000340080470546D5E03A4A126852F8341076
:1043C000119888470546CDE0364B1B6853F83420DA
:1043D000DDE9110190470546C4E0324F3F6857F8C8
:1043E000343011A807C898470546BBE0DFF8B4C0D1
:1043F000DCF800C05CF8347011A80FC8B847054657
:10440000B0E01598DFF89CC00090DCF800C05CF8C4
:10441000347011A80FC8B8470546A3E0DDE91501BF
:10442000DFF880C0CDE90001DCF800C05CF8347032
:1044300011A80FC8B847054694E0DDE91512179892
:10444000DFF860C0CDE900120290DCF800C05CF833
:10445000347011A80FC8B847054683E0DDE915237D
:10446000DDE91710DFF83CC0CDE90023CDE90210EB
:10447000DCF800C05CF8347011A80FC8B8470546D6
:1044800070E000004845583A305825580D0A0000A1
:104490003136BDF8D6C6B2CECAFDCFD4CABE210DC4
:1044A0000A000000940000204445433A256C750D35
:1044B0000A0000003130BDF8D6C6B2CECAFDCFD456
:1044C000CABE210D0A0000002A2830582558293D6F
:1044D000305825580D0A00002A282564293D2564F6
:1044E0000D0A0000001002400D0A2573280000008C
:1044F0002563000025730000256C75003058255891
:10450000000000002C00000029000000DDE9161367
:10451000DDE91802CDE90113CDE903021598DFF8B2
:10452000F8C00090DCF800C05CF8347011A80FC827
:10453000B847054616E0DDE91723DDE91910CDE996
:104540000223CDE90410DDE91501DFF8CCC0CDE987
:104550000001DCF800C05CF8347011A80FC8B8473F
:10456000054600BF00BF9DF81C0001280CD12A4859
:10457000C07D20B9294629A000F068FB07E0294644
:1045800028A000F063FB02E025A000F05FFB00BF65
:104590009EE670B52648008810F4004F36D02448B7
:1045A0000088C5B24FF00000224948551A4881687A
:1045B0002048884704461CB91749C868804721E04D
:1045C0001C48FFF7BFFA0546012D00D02C46CCB1A0
:1045D000012C06D0022C08D0032C0AD0042C10D1B8
:1045E0000BE015A000F032FB0BE016A000F02EFB54
:1045F00007E017A000F02AFB03E018A000F026FB5C
:1046000000BF00BF4FF000000949088070BD01469F
:104610000868704701607047940000203D256C7564
:104620003B0D0A003D305825583B0D0A00000000A4
:104630000800002080010020BAAFCAFDB4EDCEF31F
:10464000210D0A00B2CECAFDB4EDCEF3210D0A0051
:10465000B2CECAFDCCABB6E0210D0A00CEB4D5D2A5
:10466000B5BDC6A5C5E4B5C4BAAFCAFD210D0A00E3
:1046700002460CE010780B78984201D00120704778
:10468000107800B904E002F1010201F10101F1E743
:1046900000BF0020F3E708E002780A70027802B950
:1046A00004E000F1010001F10101F5E700BF7047EE
:1046B00001464FF0000007E00A7802B905E000F17A
:1046C0000102D0B201F10101F6E700BF704710B559
:1046D00002464FF0010000E050430B00A1F101043D
:1046E000E1B2F9D110BD2DE9F04307460E464FF077
:1046F00000054FF00A083C462846306021E020784B
:10470000392802DC207830280ADA2078462802DCB2
:104710002078412804DA207858280AD1012D08D1C0
:104720002078412801DB4FF0100805F10100C5B2E7
:1047300005E0207800B905E00120BDE8F08304F130
:104740000104DCE700BF3C46B8F1100F11D1032D86
:1047500001DA0220F1E72078302808D16078582863
:1047600005D104F10204A5F10200C5B204E0032062
:10477000E3E70DB90420E0E71DE015B1A5F1010064
:10478000C5B22078392806DC2078302803DB207871
:10479000A0F1300902E02078A0F13709294640460F
:1047A000FFF795FF316809FB0010306004F1010448
:1047B000207800B900E0E0E700BF0020BDE710B5B9
:1047C00004464FF0000010700EE02078087004F1ED
:1047D000010401F10101107800F10100107010785E
:1047E000984201DB012010BD2078202802D02078DB
:1047F0000028EAD14FF00000087000BFF3E701463F
:1048000001F1010101E001F101010878202801D145
:104810000029F8D1087870472DE9FF4F85B0804610
:1048200089464FF000073846049003904FF001008E
:1048300002904FF0000B4FF0000544461FE0207837
:10484000202817D005F07F00052813DA0DB945F0B0
:10485000800505F07F00042803D120782A2800D0A5
:1048600010E0207805F07F010DF8010005F101004E
:10487000C5B202E0852D00D104E004F101042078E6
:104880000028DCD100BFADB14FF0000005F07F0182
:104890000DF80100E0A16846FFF7EAFE20B94FF0ED
:1048A00000010898017003E04FF0010108980170C1
:1048B0004FF000054FF0000A444615E004F10104F2
:1048C0000AF1010000F0FF0A2078202802D02078A9
:1048D0002A2809D12046FFF792FF0646282E03D04A
:1048E0002A2E01D0CDF810A02078282802D02078D8
:1048F0000028E3D14446049818B1049800F101005F
:1049000004444FF0000A56465EE0207810B94FF09C
:10491000010A5AE02078282804D11EB907F10100C5
:10492000C7B216E02078292809D146B91FB1A7F1EE
:104930000100C7B201E04FF0010A57B945E0207805
:10494000222806D116B94FF0010001E04FF0000017
:10495000064647B92078202834D0207889F800000E
:1049600009F101092EE020782C2806D14FF0010032
:10497000029005F10100C5B215E02078202812D080
:10498000207828280FD04DB9BBF1050F06DA207822
:104990000DF80B000BF1010000F0FF0B029800F185
:1049A0000100C0B20290012F0CD10298022809D157
:1049B000029800F10100C0B20290039800F10100DA
:1049C000C0B2039004F101049FE700BF03980128DF
:1049D0000BD14FF000000DF80B008FA16846FFF7D8
:1049E00047FE10B94FF00000039007990398087034
:1049F0004FF0000089F80000504609B0BDE8F08F84
:104A0000F0B5034615464FF0000002460646044640
:104A100058E01F782C2F02D10CB94FF001021F78FB
:104A2000292F01D01F780FB904B94CE0002E38D1DE
:104A30001F78302F02DB1F78392F11DD1F78612F8F
:104A400002DB1F78662F0BDD1F78412F02DB1F78FA
:104A5000462F05DD1F78582F02D01F78782F0ED1F2
:104A600002B130E01F78612F04DB1F78A7F1200727
:104A70000F7001E01F780F7001F101011DE01F7838
:104A8000222F05D102B11EE04FF00106344614E09A
:104A90001F78202F11D01F782C2F0ED04FF0FF063B
:104AA00011E01F78222F01D14FF0000402B10AE07B
:104AB0001CB11F780F7001F1010100F10107F8B27C
:104AC00003F10103A5E700BF4FF000070F702E7040
:104AD000F0BD02464FF00000014606E0504B5B5C23
:104AE0000344D8B201F10103D9B29142F6DB704719
:104AF0002DE9F043B5B005460F464FF000042646B9
:104B000006E04FF000014648815506F10100C6B2AB
:104B10000A2EF6DB07E005F10105287818B9012017
:104B200035B0BDE8F08328782828F4D105F10105D7
:104B30006DE034AA69462846FFF762FF0646354411
:104B40009DF8D00020B101282DD0FF2858D155E084
:104B50009DF8000030B333A96846FFF7C4FD064650
:104B60000EB10220DCE72046FFF7B3FF2C490A31E3
:104B7000339A0A50A1F12400008B4FF0010101FA91
:104B800004F120EA01002649A1F11A0108834FF03F
:104B900004012348015504F10100C4B20A2C01DDCF
:104BA0000320BDE72CE06846FFF782FD00F101001D
:104BB00000F0FF082046FFF78CFF19490A3100EB8F
:104BC000010949466846FFF766FD15481A38018B0A
:104BD0004FF0010000FA04F041EA000188B21049E8
:104BE000A1F11A0108830E4800F8048004F10100C5
:104BF000C4B20A2C01DD032092E701E002208FE716
:104C000000BF2878292801D0287800B900E090E773
:104C100000BF3C70002083E7766F696400000000ED
:104C2000AE000020704700001CB50C46064B7B44CC
:104C300069460090204600F062FA0446002069466A
:104C400000F070FA20461CBDF30400000FB40449C4
:104C500010B503AA029800F081FA10BC5DF814FBAD
:104C60000C00002070B5044685690068C10601D5B6
:104C7000302600E02026C00708D070BDD4E901210D
:104C800030469047206A00F1010020626D1EF5D584
:104C900070BD70B5044685690068C00708D170BD55
:104CA000D4E9012120209047206A00F10100206210
:104CB0006D1EF5D570BD70B505460C46012A05D0B0
:104CC0002868800600D5EA69002302E0012305E098
:104CD0005B1C934202D2E05C0028F9D1A869E61877
:104CE000C01AA861286A184428622846FFF7BAFF4C
:104CF00004E0D5E9012114F8010B9047B442F8D340
:104D00002846FFF7C6FF70BD2DE9F0410746002594
:104D100010687529394616A411D000F068F90028EA
:104D200003DAC0F1000013A407E039688A0701D54F
:104D300011A402E0490704D510A4012501E000F008
:104D40005FF900210A2307F1240607E0B0FBF3F224
:104D500003FB1200303070541046491C0028F5D176
:104D60002B4622463846BDE8F04100F052B900001B
:104D7000000000002D0000002B00000020000000BB
:104D8000F0B40F460168090502D5234C7C4402E0CB
:104D9000214C7C440E34002100F124050BE002F08C
:104DA0000F064FEA1212A65D42EA03724FEA13138E
:104DB0006E5401F1010152EA0306F0D12246046863
:104DC0000023240704D5702F05D009B11132022326
:104DD000F0BC00F01EB910320123F9E770B50446AB
:104DE0000D462146106800F00BF902462946204680
:104DF000BDE870400023C3E7D21D22F00703D3E9CA
:104E00000023BDE70368126843F020030360082312
:104E1000C3610023B4E70000E62900002DE9F05F3C
:104E2000044689464FF0000ADFF878B1FB44C0F829
:104E300020A02046E1688847002875D0252806D0A4
:104E4000D4E901219047206A401C2062F1E7002646
:104E50005F462046E16888472028054608DB312D5B
:104E600006D207EB050010F8200C08B10643F0E766
:104E7000B00701D526F00406C4F81CA00027C4F82A
:104E800018A02A2D09D0284601F058FA38B304EBAF
:104E90008708303DC8F8185019E059F8041B20461F
:104EA00004EB87029161E1688847012F054618D11C
:104EB000E069002820DA26F020061DE0D8F8180066
:104EC00000EB800005EB40003038C8F818002046A1
:104ED000E1688847054601F031FA0028EED1012F3C
:104EE0000AD02E2D08D12046E16888477F1C054650
:104EF000022F46F02006C4DBA069002803DA4042F6
:104F000046F00106A061F00701D026F010066C2DD6
:104F10000BD0682D09D04C2D39D06A2D35D0742D89
:104F200035D07A2D33D016E038E0E1682F462046A0
:104F30008847B842054609D16C2F26D04FF48060CF
:104F4000E168064320468847054604E06C2F1AD0E6
:104F50004FF4807006430DB3A5F14100192802D823
:104F6000203546F400664A462946204626604E46CD
:104F7000FBF716F980B101280BD0F61D26F00700CB
:104F800000F1080955E74020E4E78020D8E7002039
:104F9000D6E706F104094CE7284651E7206ABDE848
:104FA000F09F00006E29000010B5431C02E010F8CD
:104FB000011B71B18107FAD14FF0013202C88C1A7E
:104FC0008C4314EAC211F9D0C01A0A0603D0C01EDD
:104FD00010BDC01A10BD0A0401D0801E10BD090208
:104FE000FCD0401E10BD704770477047704709687D
:104FF0004A0501D540B27047C905FCD500B27047DB
:1050000009684A0501D5C0B27047C905FCD580B210
:1050100070472DE9F0470D4604469246994600F147
:1050200024080168880604D5E06921F01001216098
:1050300000E00120A84202DDA0EB050700E0002708
:10504000A16907EB050202EB0300A1EB0000A061E0
:105050002068C00602D42046FFF704FE002608E0C0
:10506000D4E901211AF806009047206A401C761CFA
:1050700020624E45F4DB2068C0060AD52046FFF7C3
:10508000F1FD06E0D4E9012130209047206A401C60
:105090002062381EA7F10107F4DC07E0D4E9012102
:1050A00018F805009047206A401C2062281EA5F1D0
:1050B0000105F3DC2046FFF7ECFD2068000602D571
:1050C0000220BDE8F0870120FBE711680268006A52
:1050D000530501D508700BE0D30501D5088007E022
:1050E000130603D5C217C1E9000201E052060860A9
:1050F0000120704701694A1C02610878704700B5B9
:105100008FB0CDE901310021059105497944CDE900
:10511000031011466846FFF781FE0FB000BD000086
:10512000E5FFFFFF0A6802F8010B0A60704710B53F
:10513000436913B1AFF3008001E0FFF7BCFD01202C
:1051400010BD126800F124010A7000224A70012289
:10515000EDE711684FF0FF32E9E70000074B70B54B
:105160000C467B44FFF7CBFF0546204600F048FB8A
:1051700010B14FF0FF3070BD284670BD19B7FFFF6A
:105180002DE9FF5F04468A461546DFF8AC80F844F7
:105190000027D8E900103E46CDE9001011E03AF8AA
:1051A00016106A4602A800F02FFB411C07D02168A8
:1051B000890603D5E269391891420ED8074406F1F1
:1051C00001062068800602D5E069B84205DDAE42DE
:1051D000E5DB3AF816000028E1D1A069C01BA06108
:1051E0002046FFF73FFDD8E90010CDE90010002070
:1051F00016E03AF818106A4602A800F005FB81464E
:10520000401C0BD000250DF1080B05E0D4E901216D
:105210001BF8050090476D1C4D45F7D308F10100C0
:10522000B0428046E5DB206A384420622046FFF722
:1052300030FDBDE8FF9F00001E2600002DE9F04173
:105240008046D21D22F007020026D2E90002F5298D
:1052500014A512D0002A06DA0023D0EB030063EB7A
:10526000020211A508E0D8F800108B0701D50FA5A0
:1052700002E0490701D50EA501261146002408F1D8
:10528000240704E000F052F830323A55641C50EA2A
:105290000102F7D133462A4621464046BDE8F04197
:1052A000FFF7B7BE000000002D0000002B0000003B
:1052B0002000000030B4002100F124040CE002F0D2
:1052C000070505F130054FEAD20242EA4372655400
:1052D00001F101014FEAD30352EA0305EFD104685B
:1052E000002310A2250708D504F020040C4304D0A5
:1052F000C46901230CA2641EC46130BCFFF789BEDF
:1053000010B5044621461068FFF77AFE0246204693
:10531000BDE810400023CDE7D21D22F00701D1E9FE
:105320000023C7E7000000003000000030B5B0F1F6
:105330000A024FEA900E71F100034EEA817EB0EB53
:105340000E0061EB91014FEA101E4EEA017E10EB58
:105350000E0041EB11114FEA102E4EEA016E10EBD8
:105360000E0041EB11214FEA104E4EEA014E10EBB8
:105370000E0041EB1141401841F100014FEAD0000D
:1053800040EA41704FEAD10110EB80054FEA8104F9
:1053900044EA907444EB01046D1944EB0404521B7D
:1053A000A3414FF0000348BF0A3200D530BD401C76
:1053B00041F1000130BD70472DE9FF4F0C461E46FC
:1053C0004FF0FF378BB0D2E90001DDF860800A9022
:1053D0008A46C1F30A5505B93D46002108464FF0FB
:1053E0000000BAF1000F00F4400005DA00EB800085
:1053F0004FF4400101EA50004FEA9059B9F1010F12
:1054000000DDB9460A9850EA4A000ED044F6105022
:10541000A5F2FF3545432F14B8F1000F1ED0754299
:10542000291E1EDDC9F100021CE0B8F1010F4FF08A
:10543000000001D1F24307E0302101E02154401C7B
:10544000B042FBDB30460022002121540B99C1F809
:105450000880C1E900200FB0BDE8F08FBD1B6D1CB6
:10546000DEE74A4600DA694206A800F05FFA06ABBA
:1054700007CB03AB07C350460A9900F017FB8DE832
:105480000700A0F500501F3800900398002D09DD9B
:1054900042F21F014A46084403A90390684600F0FF
:1054A00076FD08E0A0F500504A461F3803A9039096
:1054B000684600F080FD8DE807000004000C03D072
:1054C0004FF0FF30410800E01046B8F1000F03D064
:1054D0000022009215461FE0751E06D4FFF726FF36
:1054E00002F1300262556D1EF8D5B3460122084321
:1054F00002D000227F1C04E02078302801D1002255
:105500007F1E002A099787D01DE0112D07DAFFF7CB
:105510000DFF303262556D1C50EA0102F5D108438F
:105520000FD10021681E05E0235C625C6354491CB6
:105530002254401E8142F7DBAB46A81B401E099057
:1055400001E0009848B1002004F80B000B98099A7C
:10555000C0F80880C0E9002B7DE711264FF0000855
:105560005AE72DE9F04F88460446D21D22F0070184
:1055700091B0D1E90001CDE90A0100F0CBFE02466D
:105580000B98C00F01D02D2007E02068810701D5BE
:105590002B2002E0202101EAC000032A099001D05B
:1055A000072A05DB03464146204600F07FF90EE15D
:1055B0002068800601D5E06900E00620B8F1650F9B
:1055C000814606D0B8F1660F18D0B8F1670F72D1D6
:1055D00032E00020B9F1110F0090484601DB1123A1
:1055E00000E0431C0AAA01A90CA8FFF7E5FEDDE9CB
:1055F0000C70002609F10105834648E001204B4666
:1056000000904FF000470AAA01A90CA8FFF7D4FEAA
:10561000DDE90C050E990026AB4619B909F1010127
:1056200000EB0105B9EB050003D4C0F1FF3609F129
:105630000105A5EB09002BE0B9F1010F01DA4FF0EC
:1056400001090020B9F1110F0090484601DD112336
:1056500000E003460AAA01A90CA8FFF7ADFEDDE9A8
:105660000C704D4600268346206800070AD4AB45DF
:1056700000DA5D4601A8012D04DD411911F8011C75
:10568000302907D04F4502DA17F1040F04DA012060
:10569000824610E06D1EEEE7002F02DCED1B3E445B
:1056A00003E0781CA84200DD0546A7EB060000F1E8
:1056B000010A4FF000472068000703D4AA4501DB28
:1056C0004FF0FF3A0021B7F1004F0DF143088DF87C
:1056D000431022D002202B23002F01DA7F422D23FA
:1056E0000A22011EA0F1010000DC4FB197FBF2F18C
:1056F00002FB117C0F460CF1300C08F801CDF0E7ED
:10570000A8F1010003702168090501D5452100E0D9
:105710006521A0F1010800F8011C09980FA9A1EB6F
:10572000080707F1070700B1012000EB050101EBB5
:10573000EA70A1693844A1EB0000A0F10100A0616A
:105740002068C00602D42046FFF78CFA099830B1D1
:10575000D4E901219047206A00F10100206220680D
:10576000C00620D52046FFF77DFA1CE0002E04DBA2
:10577000B34502DD01A8805D00E03020D4E90121BD
:105780009047206A761C401CBAF1010A20620AD1B7
:1057900000F088F8C0680168405CD4E901219047B6
:1057A000206A401C2062281EA5F10105DEDC07E00E
:1057B000D4E9012118F8010B9047206A401C2062AF
:1057C000381EA7F10107F3DC2046FFF762FA02203A
:1057D00011B041E610B5436913B1AFF3008001E0A9
:1057E000FFF7CEFC012010BD126800F12401828475
:1057F0000022C2840122EDE711684FF0FF32E9E791
:10580000C06800F08000704770B505460C4616462B
:1058100000F040F8036893F80101012806D0FF2C3E
:105820000FD8185D68B101202C7070BDD3F8070146
:105830003246214603442846BDE8704003F2071370
:1058400018474FF0FF3070BD754600F0E7F8AE46E0
:1058500005006946534620F00700854618B020B57C
:10586000FAF718FDBDE820404FF000064FF00007A2
:105870004FF000084FF0000B21F00701AC46ACE8F8
:10588000C009ACE8C009ACE8C009ACE8C0098D4665
:105890007047000010B500F005F8001D10BD00BFF6
:1058A000D90A0000004870470C0400202DE9F0419F
:1058B00004461F4603260168072A01F4006004DB42
:1058C00008B116A505E016A503E008B115A500E08E
:1058D00015A521F010002060A069C01EA0610FB1C5
:1058E000401EA0612046FFF7BDF94FB1D4E9012168
:1058F00038469047206A401C2062C01C206206E0A7
:10590000206AFAE7D4E9012115F8010B9047761EC9
:10591000F8D22046FFF7BDF9BDE8F0814E414E00B8
:105920006E616E00494E4600696E66002DE9F047D3
:10593000814616468AB035487844D0E9002380680D
:105940000092CDE90130314878440C38D0E9022387
:10595000006903924FF03702CDE9043041F69B30E5
:10596000014491FBF2F0A0F1800502FB10141B3CF6
:1059700002D56442012000E00020DFF890A08046BC
:105980000027FA44AAF1C60A0DE0E00709D0324622
:10599000684607EB47010AEB810100F00CFB8DE83C
:1059A000070064107F1C002CEFD1184F7F44B43FD8
:1059B00017E0E80713D007EB04100DF1180A90E880
:1059C0000E00AAE80E00C068F04201D198190890B4
:1059D000324606A903A800F0EEFA03AB07C36D1028
:1059E000641C002DE5D132466946B8F1000F03A8CA
:1059F00002D000F0CCFA01E000F0DDFAC9E90001C4
:105A0000C9F808200AB0BDE8F0870000F81E0000C1
:105A10000446AFF300802046FAF727FC00487047A1
:105A2000EC0300204FF0013C50F8042B51F8043BEC
:105A30009A4221D1A2EB0C03934313EACC1317D162
:105A400050F8042B51F8043B9A4215D1A2EB0C03F9
:105A5000934313EACC130BD150F8042B51F8043BB9
:105A60009A4209D1A2EB0C03934313EACC13DBD087
:105A70004FF00000704700BFD01A01BAB1FA81F1AF
:105A800001F0180122FA01F0CB40C1F12001DBB294
:105A9000C0B2C01A2CFA01F3D11A914311EAC31112
:105AA000E6D1704700487047F00300205FEA400CE1
:105AB00008BF91F0000F4FEA8C234FEAC12243EA5E
:105AC00051514FEA1C5018BF00F5F0404FEA30002A
:105AD00018BF41F000415FEA6C5C00F02980BCF126
